{
  "abi": [
    {
      "inputs": [],
      "stateMutability": "nonpayable",
      "type": "constructor"
    },
    {
      "anonymous": false,
      "inputs": [
        {
          "indexed": true,
          "internalType": "address",
          "name": "owner",
          "type": "address"
        },
        {
          "indexed": true,
          "internalType": "address",
          "name": "approved",
          "type": "address"
        },
        {
          "indexed": true,
          "internalType": "uint256",
          "name": "tokenId",
          "type": "uint256"
        }
      ],
      "name": "Approval",
      "type": "event"
    },
    {
      "anonymous": false,
      "inputs": [
        {
          "indexed": true,
          "internalType": "address",
          "name": "owner",
          "type": "address"
        },
        {
          "indexed": true,
          "internalType": "address",
          "name": "operator",
          "type": "address"
        },
        {
          "indexed": false,
          "internalType": "bool",
          "name": "approved",
          "type": "bool"
        }
      ],
      "name": "ApprovalForAll",
      "type": "event"
    },
    {
      "anonymous": false,
      "inputs": [
        {
          "indexed": true,
          "internalType": "address",
          "name": "from",
          "type": "address"
        },
        {
          "indexed": true,
          "internalType": "address",
          "name": "to",
          "type": "address"
        },
        {
          "indexed": true,
          "internalType": "uint256",
          "name": "tokenId",
          "type": "uint256"
        }
      ],
      "name": "Transfer",
      "type": "event"
    },
    {
      "inputs": [
        {
          "internalType": "address",
          "name": "to",
          "type": "address"
        },
        {
          "internalType": "uint256",
          "name": "tokenId",
          "type": "uint256"
        }
      ],
      "name": "approve",
      "outputs": [],
      "stateMutability": "nonpayable",
      "type": "function"
    },
    {
      "inputs": [
        {
          "internalType": "address",
          "name": "goer",
          "type": "address"
        },
        {
          "internalType": "string",
          "name": "tokenURI",
          "type": "string"
        }
      ],
      "name": "awardTicket",
      "outputs": [
        {
          "internalType": "uint256",
          "name": "",
          "type": "uint256"
        }
      ],
      "stateMutability": "nonpayable",
      "type": "function"
    },
    {
      "inputs": [
        {
          "internalType": "address",
          "name": "owner",
          "type": "address"
        }
      ],
      "name": "balanceOf",
      "outputs": [
        {
          "internalType": "uint256",
          "name": "",
          "type": "uint256"
        }
      ],
      "stateMutability": "view",
      "type": "function"
    },
    {
      "inputs": [
        {
          "internalType": "uint256",
          "name": "tokenId",
          "type": "uint256"
        }
      ],
      "name": "getApproved",
      "outputs": [
        {
          "internalType": "address",
          "name": "",
          "type": "address"
        }
      ],
      "stateMutability": "view",
      "type": "function"
    },
    {
      "inputs": [
        {
          "internalType": "address",
          "name": "owner",
          "type": "address"
        },
        {
          "internalType": "address",
          "name": "operator",
          "type": "address"
        }
      ],
      "name": "isApprovedForAll",
      "outputs": [
        {
          "internalType": "bool",
          "name": "",
          "type": "bool"
        }
      ],
      "stateMutability": "view",
      "type": "function"
    },
    {
      "inputs": [],
      "name": "name",
      "outputs": [
        {
          "internalType": "string",
          "name": "",
          "type": "string"
        }
      ],
      "stateMutability": "view",
      "type": "function"
    },
    {
      "inputs": [
        {
          "internalType": "uint256",
          "name": "tokenId",
          "type": "uint256"
        }
      ],
      "name": "ownerOf",
      "outputs": [
        {
          "internalType": "address",
          "name": "",
          "type": "address"
        }
      ],
      "stateMutability": "view",
      "type": "function"
    },
    {
      "inputs": [
        {
          "internalType": "address",
          "name": "from",
          "type": "address"
        },
        {
          "internalType": "address",
          "name": "to",
          "type": "address"
        },
        {
          "internalType": "uint256",
          "name": "tokenId",
          "type": "uint256"
        }
      ],
      "name": "safeTransferFrom",
      "outputs": [],
      "stateMutability": "nonpayable",
      "type": "function"
    },
    {
      "inputs": [
        {
          "internalType": "address",
          "name": "from",
          "type": "address"
        },
        {
          "internalType": "address",
          "name": "to",
          "type": "address"
        },
        {
          "internalType": "uint256",
          "name": "tokenId",
          "type": "uint256"
        },
        {
          "internalType": "bytes",
          "name": "data",
          "type": "bytes"
        }
      ],
      "name": "safeTransferFrom",
      "outputs": [],
      "stateMutability": "nonpayable",
      "type": "function"
    },
    {
      "inputs": [
        {
          "internalType": "address",
          "name": "operator",
          "type": "address"
        },
        {
          "internalType": "bool",
          "name": "approved",
          "type": "bool"
        }
      ],
      "name": "setApprovalForAll",
      "outputs": [],
      "stateMutability": "nonpayable",
      "type": "function"
    },
    {
      "inputs": [
        {
          "internalType": "bytes4",
          "name": "interfaceId",
          "type": "bytes4"
        }
      ],
      "name": "supportsInterface",
      "outputs": [
        {
          "internalType": "bool",
          "name": "",
          "type": "bool"
        }
      ],
      "stateMutability": "view",
      "type": "function"
    },
    {
      "inputs": [],
      "name": "symbol",
      "outputs": [
        {
          "internalType": "string",
          "name": "",
          "type": "string"
        }
      ],
      "stateMutability": "view",
      "type": "function"
    },
    {
      "inputs": [
        {
          "internalType": "uint256",
          "name": "tokenId",
          "type": "uint256"
        }
      ],
      "name": "tokenURI",
      "outputs": [
        {
          "internalType": "string",
          "name": "",
          "type": "string"
        }
      ],
      "stateMutability": "view",
      "type": "function"
    },
    {
      "inputs": [
        {
          "internalType": "address",
          "name": "from",
          "type": "address"
        },
        {
          "internalType": "address",
          "name": "to",
          "type": "address"
        },
        {
          "internalType": "uint256",
          "name": "tokenId",
          "type": "uint256"
        }
      ],
      "name": "transferFrom",
      "outputs": [],
      "stateMutability": "nonpayable",
      "type": "function"
    }
  ],
  "bytecode": {
    "object": "0x60806040523480156200001157600080fd5b506040518060400160405280600e81526020016d10dbdb98d95c9d08151a58dad95d60921b8152506040518060400160405280600381526020016210d0d560ea1b815250816000908162000066919062000123565b50600162000075828262000123565b505050620001ef565b634e487b7160e01b600052604160045260246000fd5b600181811c90821680620000a957607f821691505b602082108103620000ca57634e487b7160e01b600052602260045260246000fd5b50919050565b601f8211156200011e57600081815260208120601f850160051c81016020861015620000f95750805b601f850160051c820191505b818110156200011a5782815560010162000105565b5050505b505050565b81516001600160401b038111156200013f576200013f6200007e565b620001578162000150845462000094565b84620000d0565b602080601f8311600181146200018f5760008415620001765750858301515b600019600386901b1c1916600185901b1785556200011a565b600085815260208120601f198616915b82811015620001c0578886015182559484019460019091019084016200019f565b5085821015620001df5787850151600019600388901b60f8161c191681555b5050505050600190811b01905550565b6116e980620001ff6000396000f3fe608060405234801561001057600080fd5b50600436106100ea5760003560e01c806370a082311161008c578063a22cb46511610066578063a22cb465146101e1578063b88d4fde146101f4578063c87b56dd14610207578063e985e9c51461021a57600080fd5b806370a08231146101a55780637be248bb146101c657806395d89b41146101d957600080fd5b8063095ea7b3116100c8578063095ea7b31461015757806323b872dd1461016c57806342842e0e1461017f5780636352211e1461019257600080fd5b806301ffc9a7146100ef57806306fdde0314610117578063081812fc1461012c575b600080fd5b6101026100fd3660046110b3565b610256565b60405190151581526020015b60405180910390f35b61011f6102a8565b60405161010e9190611120565b61013f61013a366004611133565b61033a565b6040516001600160a01b03909116815260200161010e565b61016a610165366004611168565b610361565b005b61016a61017a366004611192565b61047b565b61016a61018d366004611192565b6104ac565b61013f6101a0366004611133565b6104c7565b6101b86101b33660046111ce565b610527565b60405190815260200161010e565b6101b86101d4366004611275565b6105ad565b61011f6105e4565b61016a6101ef3660046112d7565b6105f3565b61016a610202366004611313565b610602565b61011f610215366004611133565b61063a565b61010261022836600461138f565b6001600160a01b03918216600090815260056020908152604080832093909416825291909152205460ff1690565b60006001600160e01b031982166380ac58cd60e01b148061028757506001600160e01b03198216635b5e139f60e01b145b806102a257506301ffc9a760e01b6001600160e01b03198316145b92915050565b6060600080546102b7906113c2565b80601f01602080910402602001604051908101604052809291908181526020018280546102e3906113c2565b80156103305780601f1061030557610100808354040283529160200191610330565b820191906000526020600020905b81548152906001019060200180831161031357829003601f168201915b5050505050905090565b60006103458261074a565b506000908152600460205260409020546001600160a01b031690565b600061036c826104c7565b9050806001600160a01b0316836001600160a01b0316036103de5760405162461bcd60e51b815260206004820152602160248201527f4552433732313a20617070726f76616c20746f2063757272656e74206f776e656044820152603960f91b60648201526084015b60405180910390fd5b336001600160a01b03821614806103fa57506103fa8133610228565b61046c5760405162461bcd60e51b815260206004820152603d60248201527f4552433732313a20617070726f76652063616c6c6572206973206e6f7420746f60448201527f6b656e206f776e6572206f7220617070726f76656420666f7220616c6c00000060648201526084016103d5565b61047683836107ac565b505050565b610485338261081a565b6104a15760405162461bcd60e51b81526004016103d5906113fc565b610476838383610898565b61047683838360405180602001604052806000815250610602565b6000818152600260205260408120546001600160a01b0316806102a25760405162461bcd60e51b8152602060048201526018602482015277115490cdcc8c4e881a5b9d985b1a59081d1bdad95b88125160421b60448201526064016103d5565b60006001600160a01b0382166105915760405162461bcd60e51b815260206004820152602960248201527f4552433732313a2061646472657373207a65726f206973206e6f7420612076616044820152683634b21037bbb732b960b91b60648201526084016103d5565b506001600160a01b031660009081526003602052604090205490565b6000806105b960075490565b90506105c58482610a09565b6105cf8184610ba2565b6105dd600780546001019055565b9392505050565b6060600180546102b7906113c2565b6105fe338383610c35565b5050565b61060c338361081a565b6106285760405162461bcd60e51b81526004016103d5906113fc565b61063484848484610d03565b50505050565b60606106458261074a565b6000828152600660205260408120805461065e906113c2565b80601f016020809104026020016040519081016040528092919081815260200182805461068a906113c2565b80156106d75780601f106106ac576101008083540402835291602001916106d7565b820191906000526020600020905b8154815290600101906020018083116106ba57829003601f168201915b5050505050905060006106f560408051602081019091526000815290565b90508051600003610707575092915050565b815115610739578082604051602001610721929190611449565b60405160208183030381529060405292505050919050565b61074284610d36565b949350505050565b6000818152600260205260409020546001600160a01b03166107a95760405162461bcd60e51b8152602060048201526018602482015277115490cdcc8c4e881a5b9d985b1a59081d1bdad95b88125160421b60448201526064016103d5565b50565b600081815260046020526040902080546001600160a01b0319166001600160a01b03841690811790915581906107e1826104c7565b6001600160a01b03167f8c5be1e5ebec7d5bd14f71427d1e84f3dd0314c0f7b2291e5b200ac8c7c3b92560405160405180910390a45050565b600080610826836104c7565b9050806001600160a01b0316846001600160a01b0316148061086d57506001600160a01b0380821660009081526005602090815260408083209388168352929052205460ff165b806107425750836001600160a01b03166108868461033a565b6001600160a01b031614949350505050565b826001600160a01b03166108ab826104c7565b6001600160a01b0316146108d15760405162461bcd60e51b81526004016103d590611478565b6001600160a01b0382166109335760405162461bcd60e51b8152602060048201526024808201527f4552433732313a207472616e7366657220746f20746865207a65726f206164646044820152637265737360e01b60648201526084016103d5565b6109408383836001610da9565b826001600160a01b0316610953826104c7565b6001600160a01b0316146109795760405162461bcd60e51b81526004016103d590611478565b600081815260046020908152604080832080546001600160a01b03199081169091556001600160a01b0387811680865260038552838620805460001901905590871680865283862080546001019055868652600290945282852080549092168417909155905184937fddf252ad1be2c89b69c2b068fc378daa952ba7f163c4a11628f55a4df523b3ef91a4505050565b6001600160a01b038216610a5f5760405162461bcd60e51b815260206004820181905260248201527f4552433732313a206d696e7420746f20746865207a65726f206164647265737360448201526064016103d5565b6000818152600260205260409020546001600160a01b031615610ac45760405162461bcd60e51b815260206004820152601c60248201527f4552433732313a20746f6b656e20616c7265616479206d696e7465640000000060448201526064016103d5565b610ad2600083836001610da9565b6000818152600260205260409020546001600160a01b031615610b375760405162461bcd60e51b815260206004820152601c60248201527f4552433732313a20746f6b656e20616c7265616479206d696e7465640000000060448201526064016103d5565b6001600160a01b038216600081815260036020908152604080832080546001019055848352600290915280822080546001600160a01b0319168417905551839291907fddf252ad1be2c89b69c2b068fc378daa952ba7f163c4a11628f55a4df523b3ef908290a45050565b6000828152600260205260409020546001600160a01b0316610c1d5760405162461bcd60e51b815260206004820152602e60248201527f45524337323155524953746f726167653a2055524920736574206f66206e6f6e60448201526d32bc34b9ba32b73a103a37b5b2b760911b60648201526084016103d5565b6000828152600660205260409020610476828261150b565b816001600160a01b0316836001600160a01b031603610c965760405162461bcd60e51b815260206004820152601960248201527f4552433732313a20617070726f766520746f2063616c6c65720000000000000060448201526064016103d5565b6001600160a01b03838116600081815260056020908152604080832094871680845294825291829020805460ff191686151590811790915591519182527f17307eab39ab6107e8899845ad3d59bd9653f200f220920489ca2b5937696c31910160405180910390a3505050565b610d0e848484610898565b610d1a84848484610e31565b6106345760405162461bcd60e51b81526004016103d5906115cb565b6060610d418261074a565b6000610d5860408051602081019091526000815290565b90506000815111610d7857604051806020016040528060008152506105dd565b80610d8284610f32565b604051602001610d93929190611449565b6040516020818303038152906040529392505050565b6001811115610634576001600160a01b03841615610def576001600160a01b03841660009081526003602052604081208054839290610de9908490611633565b90915550505b6001600160a01b03831615610634576001600160a01b03831660009081526003602052604081208054839290610e26908490611646565b909155505050505050565b60006001600160a01b0384163b15610f2757604051630a85bd0160e11b81526001600160a01b0385169063150b7a0290610e75903390899088908890600401611659565b6020604051808303816000875af1925050508015610eb0575060408051601f3d908101601f19168201909252610ead91810190611696565b60015b610f0d573d808015610ede576040519150601f19603f3d011682016040523d82523d6000602084013e610ee3565b606091505b508051600003610f055760405162461bcd60e51b81526004016103d5906115cb565b805181602001fd5b6001600160e01b031916630a85bd0160e11b149050610742565b506001949350505050565b60606000610f3f83610fc5565b600101905060008167ffffffffffffffff811115610f5f57610f5f6111e9565b6040519080825280601f01601f191660200182016040528015610f89576020820181803683370190505b5090508181016020015b600019016f181899199a1a9b1b9c1cb0b131b232b360811b600a86061a8153600a8504945084610f9357509392505050565b60008072184f03e93ff9f4daa797ed6e38ed64bf6a1f0160401b83106110045772184f03e93ff9f4daa797ed6e38ed64bf6a1f0160401b830492506040015b6d04ee2d6d415b85acef81000000008310611030576d04ee2d6d415b85acef8100000000830492506020015b662386f26fc10000831061104e57662386f26fc10000830492506010015b6305f5e1008310611066576305f5e100830492506008015b612710831061107a57612710830492506004015b6064831061108c576064830492506002015b600a83106102a25760010192915050565b6001600160e01b0319811681146107a957600080fd5b6000602082840312156110c557600080fd5b81356105dd8161109d565b60005b838110156110eb5781810151838201526020016110d3565b50506000910152565b6000815180845261110c8160208601602086016110d0565b601f01601f19169290920160200192915050565b6020815260006105dd60208301846110f4565b60006020828403121561114557600080fd5b5035919050565b80356001600160a01b038116811461116357600080fd5b919050565b6000806040838503121561117b57600080fd5b6111848361114c565b946020939093013593505050565b6000806000606084860312156111a757600080fd5b6111b08461114c565b92506111be6020850161114c565b9150604084013590509250925092565b6000602082840312156111e057600080fd5b6105dd8261114c565b634e487b7160e01b600052604160045260246000fd5b600067ffffffffffffffff8084111561121a5761121a6111e9565b604051601f8501601f19908116603f01168101908282118183101715611242576112426111e9565b8160405280935085815286868601111561125b57600080fd5b858560208301376000602087830101525050509392505050565b6000806040838503121561128857600080fd5b6112918361114c565b9150602083013567ffffffffffffffff8111156112ad57600080fd5b8301601f810185136112be57600080fd5b6112cd858235602084016111ff565b9150509250929050565b600080604083850312156112ea57600080fd5b6112f38361114c565b91506020830135801515811461130857600080fd5b809150509250929050565b6000806000806080858703121561132957600080fd5b6113328561114c565b93506113406020860161114c565b925060408501359150606085013567ffffffffffffffff81111561136357600080fd5b8501601f8101871361137457600080fd5b611383878235602084016111ff565b91505092959194509250565b600080604083850312156113a257600080fd5b6113ab8361114c565b91506113b96020840161114c565b90509250929050565b600181811c908216806113d657607f821691505b6020821081036113f657634e487b7160e01b600052602260045260246000fd5b50919050565b6020808252602d908201527f4552433732313a2063616c6c6572206973206e6f7420746f6b656e206f776e6560408201526c1c881bdc88185c1c1c9bdd9959609a1b606082015260800190565b6000835161145b8184602088016110d0565b83519083019061146f8183602088016110d0565b01949350505050565b60208082526025908201527f4552433732313a207472616e736665722066726f6d20696e636f72726563742060408201526437bbb732b960d91b606082015260800190565b601f82111561047657600081815260208120601f850160051c810160208610156114e45750805b601f850160051c820191505b81811015611503578281556001016114f0565b505050505050565b815167ffffffffffffffff811115611525576115256111e9565b6115398161153384546113c2565b846114bd565b602080601f83116001811461156e57600084156115565750858301515b600019600386901b1c1916600185901b178555611503565b600085815260208120601f198616915b8281101561159d5788860151825594840194600190910190840161157e565b50858210156115bb5787850151600019600388901b60f8161c191681555b5050505050600190811b01905550565b60208082526032908201527f4552433732313a207472616e7366657220746f206e6f6e20455243373231526560408201527131b2b4bb32b91034b6b83632b6b2b73a32b960711b606082015260800190565b634e487b7160e01b600052601160045260246000fd5b818103818111156102a2576102a261161d565b808201808211156102a2576102a261161d565b6001600160a01b038581168252841660208201526040810183905260806060820181905260009061168c908301846110f4565b9695505050505050565b6000602082840312156116a857600080fd5b81516105dd8161109d56fea26469706673582212201afefa57c528fef93f98df8c942d30b9bf9ec2b65d23d968c205383e1f00c3b164736f6c63430008100033",
    "linkReferences": {}
  },
  "methodIdentifiers": {
    "approve(address,uint256)": "095ea7b3",
    "awardTicket(address,string)": "7be248bb",
    "balanceOf(address)": "70a08231",
    "getApproved(uint256)": "081812fc",
    "isApprovedForAll(address,address)": "e985e9c5",
    "name()": "06fdde03",
    "ownerOf(uint256)": "6352211e",
    "safeTransferFrom(address,address,uint256)": "42842e0e",
    "safeTransferFrom(address,address,uint256,bytes)": "b88d4fde",
    "setApprovalForAll(address,bool)": "a22cb465",
    "supportsInterface(bytes4)": "01ffc9a7",
    "symbol()": "95d89b41",
    "tokenURI(uint256)": "c87b56dd",
    "transferFrom(address,address,uint256)": "23b872dd"
  },
  "id": 28
}